:020000040800F2
:10000000F8040020C11B0008491B00084B1B000816
:100010004D1B00084F1B0008511B0008000000008A
:10002000000000000000000000000000531B00085A
:10003000551B000800000000571B0008591B000852
:10004000ED1B0008F11B0008F51B0008F91B000858
:10005000FD1B0008011C0008051C0008091C000805
:100060000D1C0008111C0008151C0008191C0008B4
:100070001D1C0008211C0008251C0008291C000864
:100080002D1C0008311C0008351C0008391C000814
:100090003D1C0008411C0008451C0008491C0008C4
:1000A0004D1C0008511C0008551C0008591C000874
:1000B0005D1C0008611C0008651C0008691C000824
:1000C0006D1C0008711C0008751C0008791C0008D4
:1000D0007D1C0008811C0008851C0008891C000884
:1000E0008D1C0008911C0008951C0008991C000834
:1000F0009D1C0008A11C0008A51C0008A91C0008E4
:10010000AD1C0008B11C0008B51C0008B91C000893
:10011000BD1C0008C11C0008C51C0008C91C000843
:100120005D1B0008CD1C0008D11C0008D51C000870
:10013000D91C00080000000000000000DD1C0008C1
:10014000E11C0008E51C0008E91C0008ED1C000883
:10015000F11C0008F51C0008F91C0008FD1C000833
:10016000011D0008051D0008091D00080D1D0008DF
:10017000111D0008151D000800000000000000000F
:10018000191D00081D1D000838B5040001D101200B
:1001900032BD00F044F818B900F03DF800F0A0FAC4
:1001A0000BE038B5040001D1012032BD00F037F872
:1001B00018B900F030F800F0D9FA02206870211D5B
:1001C000206800F0B6F801206870002032BD03D12D
:1001D000416C41F400414164816801F00701062946
:1001E00003D0016841F001010160002010BD10B58D
:1001F00000F007F800F00AF81CBFDFF82C2090424E
:10020000E5E704460122206800F0D7B92068DFF84E
:100210001C1088427047002129702046704704F165
:100220003C05687870470000000401400000014070
:1002300038B500F13C042378012B01D1022032BDF6
:1002400001232370022565704AB1042A0BD0082AC5
:100250000DD00C2A04BF006800F041F90AE00068E4
:1002600000F0B2F806E0006800F0DAF802E000689A
:1002700000F006F900F057B838B500F04EF801D19B
:10028000022032BD0120207002226270DFF8940249
:100290002A689368034093600868020018BF10281A
:1002A0002DD0202818BF302829D0402823D050280E
:1002B00016D0602818D0702803D0B0F5005F07D0A2
:1002C00021E000F025F82868816841F0770105E019
:1002D00000F01EF82868816841F48041816012E0D6
:1002E00000F012F850210BE0CA684968286800F055
:1002F00040F9602104E000F007F8402100E00146E9
:10030000286800F048F90EE0CA684968286821E1C9
:10031000CB684A688968286845E1054605F13C04D0
:100320002078012870470120607000212170002092
:1003300032BDF0B57C4C05687C4B7D4E7D4FDFF8BF
:10034000F8C1A04218BFB0F1804F07D0604518BF78
:10035000B84203D0B04218BF98420DD14A6825F088
:1003600070051543A04218BFB0F1804F17D060450B
:100370001CBFB842B04212D098421CBF6F4A904294
:100380000DD06F4EB0421CBF6E4A904207D06E4EE9
:10039000B0421FBF6D4A90426D4EB04203D1CA6851
:1003A00025F4407515434A6925F08005154305601D
:1003B000A0428D68C5620A68826212BF98420969CC
:1003C000016301224261F0BDF0B5026A564F520846
:1003D00052000262066A446885690B688A6825F0E3
:1003E000730526F002061D431643504BB84218BF52
:1003F000984207D1CA6826F008061643B84226F08C
:10040000040601D0984205D14B698A6924F44074EE
:100410001C43144344608561496841630662F0BD32
:10042000F0B5026A404E22F010020262B042056A44
:10043000436884690A6824F4E64444EA02248A682A
:1004400025F0200545EA0215384A18BF904208D128
:10045000CF6825F0800545EA0715B04225F0400534
:1004600001D0904206D14E698A6923F44063164355
:1004700043EA860343608461496881630562F0BD95
:10048000F0B5026A22F480720262056A4368C469A8
:100490008E680A6825F4007524F0730445EA062581
:1004A0001443214E214AB04218BF904208D1CF6870
:1004B00025F4006545EA0725B04225F4806501D0A2
:1004C000904206D14E698A6923F44053164343EAA9
:1004D00006134360C4614968C1630562F0BD70B52D
:1004E000026A114E22F480520262B042046A4268EB
:1004F000C3690D6823F4E64343EA05238D6824F4B9
:10050000005444EA05341CBF084DA84204D14D698B
:1005100022F4804242EA85124260C3614968016464
:10052000046270BD8800FFFF00000140000401402C
:10053000000C004000080040000400400040014062
:10054000004401400048014000180040001C0040E9
:100550000020004010B5036A046A64086400046265
:1005600023F00A03846924F0F00444EA021484614D
:100570002EE010B5036A23F0100303628369046A56
:1005800023F4704343EA023324F0A004836144EA75
:100590000114046210BD826822F07002114341F020
:1005A00007018160704710B5846824F47F442143BB
:1005B000114341EA0321816010BD10B501F01F0114
:1005C000036A01248C40A343036202FA01F1036A27
:1005D0001943016210BD30B4002513E050F8042B1C
:1005E000D30744BFA9F101039A18091F042942F84F
:1005F000045BFAD213468C0744BF15809B1CC907C5
:1006000048BF1D7050F8041B0029E7D130BC70476B
:1006100018B595B01022002111A800F0A8F8082202
:100620000021684600F0A3F81C2200210AA800F06F
:100630009EF82022002102A800F099F8464C474875
:100640002060532163200022E0606160A26022618B
:100650006261A2612046FFF797FD08B100F01AF928
:100660004FF48050119011A92046FFF705FE08B104
:1006700000F010F92046FFF794FD08B100F00AF9E8
:100680000021009101912046694600F005F908B16A
:1006900000F000F900200A900B9000220D900F90BE
:1006A0000C920E9210920AA92046FFF7C1FD08B1E4
:1006B00000F0F0F800204FF40051029003900490F5
:1006C000059006900791099002A9204600F02AF9AA
:1006D00008B100F0DFF8204600F015F816B010BDA4
:1006E00081B000681D4988420BD100221C4800924D
:1006F000016841F001010160006800F00100009014
:10070000009801B0704710B586B00446142200214D
:1007100001A800F02CF821681048814219D100226C
:10072000104800920222016841F0010101604FF47B
:10073000C071006800F00100009000980A48019123
:1007400002920021039104910121059101A900F079
:1007500013F906B010BD0000B800002000000140F1
:10076000443802403038024000000240704710B563
:10077000044610460A460146204600F0EFF920469E
:1007800010BD30B40EE00268436802440830DC0754
:1007900044BFA9F10104E31852F8045B43F8045B79
:1007A000091FF9D150F8041B0029ECD130BC704767
:1007B00010B500F007FA00F019F800F01DFA00F08B
:1007C00075FA00F08DFAFFF723FF00212D48FFF79F
:1007D0000EFD00242C49A0B20860641CA0B265285C
:1007E000A8BF0024322000F011FBF3E780B592B0DF
:1007F0003022002106A8FFF7BAFF1422002101A829
:10080000FFF7B5FF002000904FF480331F480168C8
:1008100041F0805101600021006800F0805000909C
:1008200000981B480091026842F480420260012255
:10083000006800F48040009006A80099069202210A
:100840004FF480020C910D920421A8220E910F9278
:100850000221042207931091119200F0EBFA022179
:100860000291002203920F204FF4A05101900491B5
:100870004FF480520592052101A800F063FC13B0EB
:1008800000BD0000B80000203400014040380240A4
:10089000007000407047000070B500F13C031A780A
:1008A000012A01D1022070BD01221A7002245C705D
:1008B00005686E68AC680A6826F0700616436E60BC
:1008C00002681148824218BFB2F1804F11D00F4820
:1008D00082421CBF0E4DAA420BD00E4882421CBF62
:1008E0000D4DAA4205D00D4882421CBF0C4DAA42B4
:1008F00004D1486824F080040443946001215970B5
:100900000020187070BD000000000140000400408D
:1009100000080040000C004000040140004001407D
:100920000018004010B590F83C20012A01D10220A7
:1009300010BD012280F83C20CC688A684B6824F402
:100940004074144324F480641C430A680B6924F443
:100950000064144324F480541C434A69C96924F494
:1009600000541443026824F480440C43546400236C
:1009700080F83C30002010BD2DE9F84F0D460026D0
:100980006B496C4A0F23044601202F68B04000EAEF
:100990000708804540F0C1804FEA460C032707FA5C
:1009A0000CF76FEA070E6F68012F18BF022F03D0F4
:1009B000112F18BF122F12D1A768D5F80C900EEA8C
:1009C000070709FA0CF949EA0707A760676827EAE9
:1009D00000006F68C7F30017B74038436060E068F5
:1009E000AF680EEA000007FA0CF73843E060B00089
:1009F0006F68022F18BF122F12D1F70804EB870778
:100A000000F01C09D7F820A003FA09FB2AEA0B0A18
:100A1000D5F810B00BFA09F949EA0A09C7F820908D
:100A200027680EEA070E2F7907F0030707FA0CF77D
:100A300047EA0E0727606F68FF006ED50027009712
:100A40004FEA960C176847F48047176000F00C00D7
:100A5000176807F48047009703FA00FE009F364F9F
:100A600057F82C7027EA0E0E344FBC4208BF0027FF
:100A700022D0334FBC4208BF01271DD0314FBC42AA
:100A800008BF022718D0304FBC4208BF032713D03D
:100A90002E4FBC4208BF04270ED02D4FBC4208BFCA
:100AA000052709D02B4FBC4208BF062704D02A4F88
:100AB000BC420CBF0727082707FA00F01E4F40EA88
:100AC0000E0047F82C006FEA08000F6800EA070CD8
:100AD0006F68FF0348BF48EA0C0CC1F800C04F68BC
:100AE00000EA070C6F68BF0348BF48EA0C0CC1F866
:100AF00004C08F6800EA070C6F68FF0248BF48EA2D
:100B00000C0CC1F808C0CF6800EA070C68688002C6
:100B100048BF48EA0C0CC1F80CC0761C0F2E7FF6BB
:100B200033AFBDE8F18F02B909048161704700005D
:100B3000003C0140443802400838014000000240B7
:100B40000004024000080240000C02400010024075
:100B50000014024000180240001C024062F30F2201
:100B600062F31F42401810F0030308D0C91A1FD3C4
:100B7000DB0748BF00F8012D28BF20F8022D130025
:100B800030B414461546103928BF20E93C00FAD885
:100B9000490728BF20E90C0048BF40F8042D890010
:100BA00028BF20F8022D48BF00F8012D30BC704747
:100BB000C91818BF00F8012DCB0728BF00F8012D78
:100BC0007047000080B50B48016841F40071016076
:100BD000026842F480620260016841F48071016041
:100BE000032000F07CFB002000F0CEFB00F0ECFBCB
:100BF000002002BD003C024038B586B0142200211E
:100C000001A8FFF7B4FD00212148224D224C00919C
:100C1000026842F0800202600022016801F0800157
:100C2000009100990092036843F004030360016897
:100C300001F00401009100990092036843F0010360
:100C40000360016801F00101009100990092F12117
:100C5000036843F002030360006800F002000090A4
:100C600000982846FFF75FFF002207212046FFF784
:100C70005AFFF12100F012F82846FFF77DFE072108
:100C800000F00CF82046FFF777FE07B030BD0000FB
:100C90003038024000080240000402400191012265
:100CA000002103910491029201A9704780B50020B0
:100CB000009000220948016841F480010160002190
:100CC000006800F4800000900098382000F014FBC9
:100CD000BDE80240382000F02CBB00BF3038024095
:100CE0001FB5102200216846FFF741FD404C4148E6
:100CF00020604FF480310120206120766160002265
:100D00003D48A06201210220E061A26084F8202019
:100D1000E262E26084F830106161204600F070FB0E
:100D200008B1FFF7B7FD00200121009001910322D7
:100D300002926946204600F017FC08B1FFF7AAFDB1
:100D400001210091022201926946204600F00CFC2C
:100D500008B1FFF79FFD1FBD38B586B004461422C9
:100D6000002101A8FFF703FD2168224881423CD100
:100D700000222248224D0092416941F48071416174
:100D8000416901F480710091009900920321036888
:100D900043F001030360006800F001000090009838
:100DA000019102910021039101A91648FFF7E4FD8A
:100DB0001548286000216960E9604FF400604FF435
:100DC0008061686129614FF4807000224FF4005106
:100DD000E861AA60A9612A626A62284600F06AFC9A
:100DE00008B1FFF757FDA563AC6307B030BD000045
:100DF00070000020002001400100000F3038024048
:100E000010000020000002401064024038B5044683
:100E100000F0C0FD14F1010F054602D0044801782E
:100E2000641800F0B7FD401BA042FAD331BD00BFEB
:100E3000000000202DE9F843040016D02078DFF8E8
:100E4000F462C10713D5B06800F00C00042807D085
:100E5000B06800F00C0008283DD1706841023AD516
:100E60003068810303D56068002800F05E81207837
:100E7000B14F810719D5B06810F00C0F07D0B068DA
:100E800000F00C0008285BD17068410258D430682B
:100E9000810703D5E068012840F047813168206967
:100EA00021F0F80141EAC00131602178080779D5C5
:100EB0006069A249002868D001220A6000F06AFD3A
:100EC0000546706F81076DD400F064FD401B022859
:100ED000F7D903202CE16068B0F5803F04D1306879
:100EE00040F48030306011E0B0F5A02F306806D1BA
:100EF00040F480203060316841F4803105E020F416
:100F000080303060316821F480213160606858B1F0
:100F100000F040FD054630688103A8D400F03AFD9A
:100F2000401B6528F7D3D4E700F034FD0546306850
:100F300081039CD500F02EFD401B6528F7D3C8E740
:100F4000E068A8B10121396000F024FD0546306851
:100F5000810705D400F01EFD401B0228F7D9B8E731
:100F60003068216920F0F80040EAC10030609CE759
:100F7000386000F00FFD05463168880795D500F010
:100F800009FD401B0228F7D9A3E7086000F002FD25
:100F90000546706F810705D500F0FCFC401B022858
:100FA000F7D996E7207841075FD5306C0025C1005E
:100FB0000AD400950125316C41F080513164306CC8
:100FC00000F0805000900098DFF87481D8F800009D
:100FD000C10513D4D8F8000040F48070C8F80000B0
:100FE00000F0D8FC8146D8F80000C10506D400F016
:100FF000D1FCA0EB09000228F5D96AE7A068012816
:1010000005D00528306F06D140F004003067306FFE
:1010100040F0010005E0400840003067306F20F0EC
:101020000400306741F28938A06860B100F0B2FC7A
:101030008146306F810713D400F0ACFCA0EB0900AF
:101040004045F6D345E700F0A5FC8146306F8107A7
:1010500006D500F09FFCA0EB09004045F6D338E729
:101060001DB1306C20F080503064A06900285ED043
:10107000B16801F00C0108293AD002282AD10020D9
:10108000386600F087FC05463068810105D500F020
:1010900081FC401B0228F7D91BE7E069216A626ADC
:1010A0000843A16A490840EA8210491E40EA01400B
:1010B000E16A40EA016070600120386600F06AFC75
:1010C00004463068810132D400F064FC001B022821
:1010D000F7D9FEE60020386600F05CFC0446306874
:1010E000810124D500F056FC001B0228F7D9F0E658
:1010F00001281AD07068E26900F48001914202BFB1
:1011000000F03F01226A91420FD147F6C071626A36
:101110000140914202BF00F44031A26A914202BFF5
:1011200000F07060E16A884201D0012000E00020F8
:10113000BDE8F2830038024000004742800E47427B
:10114000007000402DE9F04104000F4654D0404E9D
:10115000306800F00F00B84202D200F073F84BD1B3
:1011600020683C4D810712D5400703D5A96841F49A
:10117000E051A9602078010703D5A86840F46040D9
:10118000A860A968A06821F0F0010143A960217856
:10119000C80729D56068012802D129688A0305E0BB
:1011A000022818BF032803D129688A0103D423E049
:1011B00029688A0720D5A968890840EA8100A860C3
:1011C00000F0E8FB8046A868616800F00C00B0EB16
:1011D000810F09D000F0DEFBA0EB080041F289315D
:1011E0008842F0D303202BE0306800F00F008742E4
:1011F00004D200F027F801D0012021E02078410737
:1012000005D5AA68E06822F4E0520243AA6021787A
:10121000080706D5A968206921F4604141EAC001A8
:10122000A96000F01FF8AA680B490C4BC2F3031227
:10123000895CC84018600A48006800F0A5F80020E2
:10124000BDE8F0813770316801F00F01B942704795
:10125000003C024000380240C81A00080C00002080
:101260000800002030B5144C606800F00C00042821
:1012700002D0082802D01DE0104830BD2268206846
:101280000023410202F03F0204D525680B49C5F353
:10129000881003E020680A49C0F38810A1FB000110
:1012A00000F07EFB2168C1F30141491C4900B0FBFD
:1012B000F1F030BD024830BD0438024000127A001F
:1012C0000024F4000901020002D429488154704727
:1012D000284B02F00F021A4402F8041C7047264BF8
:1012E00019684FF6FF020002114000F4E060084365
:1012F000224908431860704770B51F4B1C68C4F33F
:1013000002230124C3F10705052D2EBF0F2504FA82
:1013100005F56D1E1E1D072E34BF0023DB1E294060
:10132000994004FA03F3BDE870405B1E1A40114374
:10133000C8E7010007D4012200F01F01104B8A40CA
:10134000400943F82020704710B5401EB0F1807F5F
:1013500001D3012010BD0B4C60600F214FF0FF3016
:10136000FFF7B0FF0021A16007202060002010BD22
:1013700000E400E018ED00E00CED00E00000FA05EC
:1013800000E100E010E000E038B50D4D0D4B2A788B
:1013900004464FF47A711868B1FBF2F2B0FBF2F038
:1013A000FFF7D2FF50B9102C08D2002221464FF08F
:1013B000FF30FFF7A1FFAC60002032BD012032BD3D
:1013C000000000200C00002081B0002000900022CE
:1013D0000A48416841F480414160416801F480411C
:1013E000009100990092036843F080530360006805
:1013F00000F080500090009801B0704740380240E3
:1014000070B5044600250CB9012070BD04F130060A
:10141000306920B92046FFF79FFC7561357330694C
:10142000C10600F192803069DFF8741220F4885010
:1014300040F002003061086820F4403008600A681B
:10144000606802430A602068416821F4807141604D
:1014500020684168226941EA0221416020684168B0
:1014600021F04071416021684A68A06802434A60E7
:101470002068816821F40061816021688A68E068E1
:1014800002438A602068A16ADFF8182291428168CD
:1014900021F0706181600CD021688A68A06A0243E3
:1014A0008A6000F05BF821688A68E06A02438A601B
:1014B00001E000F053F82068816821F0020100F09B
:1014C00049F8227E41EA4201816094F820002168B7
:1014D000002848680FD040F40060486020684168E8
:1014E00021F46041416020684168626A521E41EA0D
:1014F0004231416002E020F4006048602068C16A27
:1015000021F47001C1622068C16AE269521E41EA99
:101510000251C1622068816821F4007100F01AF85C
:10152000327841EA422100F015F821F4806100F0A0
:1015300011F8626941EA822181607561316921F0A7
:10154000020141F00101316100E00125002030730A
:10155000284670BD81602068816870472068816876
:1015600021F040518160704778B50246002000901C
:1015700092F83C30012B01D1022072BD012082F88B
:101580003C0007240B6810680A2B12D30A3BC5687D
:1015900003EB43039C4025EA0404C460C3680D6860
:1015A0008C68A5F10A0606EB4606B4402343C360E7
:1015B0000FE0056903EB430304FA03F325EA030391
:1015C000036103690D688C6805EB4505AC40234356
:1015D00003611F244B68072B0CD25B1E456B00F088
:1015E00050F84463436B4D680C886E1E00F044F85D
:1015F00043631BE00D2B0CD2DB1F056B00F041F8A1
:101600000463036B4D680C88EE1F00F035F803632C
:101610000CE00D3BC56A00F034F8C462C36A4D6843
:101620000C88A5F10D0600F027F8C3621E4B984206
:101630001DD10C681A48122C03D1036843F48003AF
:1016400003600B68102B18BF112B10D1036843F4F3
:10165000000303600868102809D11549134C0B6872
:10166000B3FBF4F40A204443009400F010F8002186
:1016700082F83C10002072BD06EB8606B44023437E
:10168000704703EB83039C4025EA0404704702E0A3
:101690000098401E009000980028F9D17047000083
:1016A000042301400100000F0020014040420F00D0
:1016B0000C00002070B5044600F06CF906460CB929
:1016C000012070BD04F134050020287002216970EA
:1016D0002068026852085200026022681068C10740
:1016E0000AD500F057F9801B0628F6D3202028627F
:1016F00003216970032070BD1368DFF83002616850
:101700000340A0680B43E168034320690B43616910
:101710000343A0690B43E1690343206A0B43616AF9
:101720000343042903D1E16A206B01430B43136097
:1017300023685A69606AD208042840EAC2020AD1C2
:10174000A66AE16A324331B1A06988B9002E18BF98
:10175000022E1FD016D35A61204600F003F9A96A61
:101760003F228A408260002028620121697070BD9A
:10177000B0F5005F0AD1032EEDD8DFE806F00D0BBF
:101780000D03E8E7B1F1C07FE5D105E0022E03D9F2
:10179000F61EE0D1C801DED5402129620120687023
:1017A00070BD2DE9FC41044604F134060020604977
:1017B00000904FF41650776A0A683D68B2FBF0F863
:1017C000B06A082100F0B7F80ED02068026853070D
:1017D0000AD5026822F004020260B06A8140B96052
:1017E000316A41F001013162B06A25FA00F1CA079D
:1017F0000BD521684A69110607D5012202FA00F0CB
:10180000B860306A40F002003062042100F092F8C3
:1018100008D021680A68930704D5B860306A40F0A0
:1018200004003062102100F085F81BD021680A689E
:10183000130717D5B860206801684A0307D5006808
:1018400001030BD5716969B1204688470AE0016838
:10185000CA0503D4016821F008010160F16809B1EB
:1018600020468847B06A202100F065F83FD0216803
:101870000A68D3063BD5B8602068717805291CD169
:10188000026822F01602026000F059F8F0680028A1
:1018900004BF7069002801D000F05DF83F22B06AF3
:1018A0008240BA600021317001227270F169002912
:1018B00039D02046BDE8FC41084701684A0307D5F6
:1018C000006801030FD4316989B1204688470EE0D2
:1018D0000168CA0507D4016821F0100101600020E9
:1018E000307001227270B16809B120468847306AB1
:1018F000C8B1306AC10710D50520707000F025F816
:101900000098401C8045009003D320680168CA07F6
:10191000F6D40020307001217170B16919B12046F0
:10192000BDE8FC410847BDE8F38100003F8010F0AE
:101930000C000020B06A01FA00F0054270472068F0
:10194000416921F0800141617047206801684908C0
:101950004900016070472068016821F008010160BA
:101960007047000030B5016808A401F0FF02103A8A
:101970001823B2FBF3F2890A8902A55CC565042A23
:1019800028BF091D8165806D30BD0000000610165E
:101990000006101601484068704700BF0000002094
:1019A000D3BBD9B1B2F5803F5BD2022A1ED98C4697
:1019B000B1FBF2F102FB11C31B0443EA1043B3FB7A
:1019C000F2FC02FB1C3380B240EA0343B3FBF2F0AB
:1019D00002FB103240EA0C4000237047022A05D96E
:1019E0008446B0FBF2F002FB10C270474AB105D149
:1019F00000F0010249085FEA30007047002200232E
:101A0000704700F051B80B00020000210020704721
:101A1000F7D3002200237047904271EB030CF2D3FE
:101A200070B5B1FA81F4B3FA83F52C1BA340C4F16D
:101A3000200532FA05F63343A2405FF00046E64047
:101A400002E05B085FEA3202841A71EB030524BFEF
:101A5000204629467641F4D302000B0030000021D5
:101A600070BD70B5B1FA81F4B2FA82F5C4F1200408
:101A70006419B4F12006DAD3B2405FF00044F440B8
:101A8000002502E052085FEA3303C61A71EB020E2A
:101A900024BF3046714664416D41F3D302000B0010
:101AA0002000290070BD0000704700000448054A6E
:101AB000016841F4700101604FF0006010607047F0
:101AC00088ED00E008ED00E00000000000000000EC
:101AD000010203040607080910B5074979441831C3
:101AE000064C7C44163404E00A68081D11448847FB
:101AF0000146A142F8D110BD2C0000004C000000AE
:101B00004EF68851CEF20001086840F4700008607B
:101B1000BFF34F8FBFF36F8F4FF00070E1EE100AED
:101B200070470000B3EAFFFFE8000000100000204B
:101B3000000000004FECFFFF1000000094000000C8
:101B400000000020000000007047FEE7FEE7FEE70F
:101B5000FEE770477047704700F006B80148FFF78E
:101B600020BE0000100000200248416802788A1858
:101B7000426070470000002000F00DF8002801D0FE
:101B8000FFF7AAFFAFF300800020AFF30080FEF75D
:101B90000FFE00F002F80120704700F001B80000CD
:101BA0000746384600F002F8FBE7000080B5AFF3C7
:101BB0000080024A11001820ABBEFBE7260002009D
:101BC0000148804701480047AD1A0008E11B0008A2
:101BD0000100000000000000100000000024F400DC
:101BE000AFF30080FFF78CFFFFF7C6FFFFF7FEBFE4
:101BF000FFF7FEBFFFF7FEBFFFF7FEBFFFF7FEBF19
:101C0000FFF7FEBFFFF7FEBFFFF7FEBFFFF7FEBF08
:101C1000FFF7FEBFFFF7FEBFFFF7FEBFFFF7FEBFF8
:101C2000FFF7FEBFFFF7FEBFFFF7FEBFFFF7FEBFE8
:101C3000FFF7FEBFFFF7FEBFFFF7FEBFFFF7FEBFD8
:101C4000FFF7FEBFFFF7FEBFFFF7FEBFFFF7FEBFC8
:101C5000FFF7FEBFFFF7FEBFFFF7FEBFFFF7FEBFB8
:101C6000FFF7FEBFFFF7FEBFFFF7FEBFFFF7FEBFA8
:101C7000FFF7FEBFFFF7FEBFFFF7FEBFFFF7FEBF98
:101C8000FFF7FEBFFFF7FEBFFFF7FEBFFFF7FEBF88
:101C9000FFF7FEBFFFF7FEBFFFF7FEBFFFF7FEBF78
:101CA000FFF7FEBFFFF7FEBFFFF7FEBFFFF7FEBF68
:101CB000FFF7FEBFFFF7FEBFFFF7FEBFFFF7FEBF58
:101CC000FFF7FEBFFFF7FEBFFFF7FEBFFFF7FEBF48
:101CD000FFF7FEBFFFF7FEBFFFF7FEBFFFF7FEBF38
:101CE000FFF7FEBFFFF7FEBFFFF7FEBFFFF7FEBF28
:101CF000FFF7FEBFFFF7FEBFFFF7FEBFFFF7FEBF18
:101D0000FFF7FEBFFFF7FEBFFFF7FEBFFFF7FEBF07
:101D1000FFF7FEBFFFF7FEBFFFF7FEBFFFF7FEBFF7
:0400000508001BE1F3
:00000001FF
